:020000040800F2
:10000000B004002049010008E90800082D08000894
:10001000E50800088D050008FB0F0008000000003F
:10002000000000000000000000000000890A000835
:100030009105000800000000710900089D0B0008F0
:100040006301000863010008630100086301000800
:1000500063010008630100086301000863010008F0
:1000600063010008630100086301000863010008E0
:1000700063010008630100086301000863010008D0
:1000800063010008630100086301000863010008C0
:1000900063010008630100086301000863010008B0
:1000A00063010008630100086301000863010008A0
:1000B000010C0008ED0C0008630100086301000852
:1000C0006301000863010008630100086301000880
:1000D000630100080D0E000863010008350E0008DA
:1000E000950500086301000863010008630100082A
:1000F0006301000863010008630100086301000850
:10010000630100086301000863010008630100083F
:10011000630100086301000863010008630100082F
:10012000630100086301000863010008630100081F
:10013000DFF810D000F018FA00480047991D0008B9
:10014000AFF30080B004002006488047064800470F
:10015000FEE7FEE7FEE7FEE7FEE7FEE7FEE7FEE777
:10016000FEE7FEE7A10B0008310100082DE9FE4F74
:10017000804681EA0300C00F0C46009021F0004148
:1001800023F00045B8EB0200A94105D240462146C4
:1001900090461C460B46024623F00040104347D0D1
:1001A000270DC7F30A00C3F30A510290401A0190C9
:1001B00040286BDAC3F3130040F4801B009892468A
:1001C00020B10023D2EB030A63EB0B0B01985946D5
:1001D000C0F14002504600F039F906460D4650463F
:1001E0005946019A00F051F910EB080061410024D2
:1001F00087EA115284EAE7731A4340D0009A62B347
:10020000019A012A4FEA075215DC001B61EB02013B
:100210004FF0004202EA0752CDE90042001C41F5CE
:10022000801132462B4600F051F903B0BDE8F08F43
:1002300040462146F9E7001B61EB0201001C41F535
:10024000801300185B412018A2F5001747EB03014B
:1002500040EAD570B6196D4111E06D084FEA3606D7
:1002600045EAC0754FEA0752001B61EB0201001C12
:1002700041F5801149084FEA3000001951413246DA
:100280002B4603B0BDE8F04F00F011B900980122F1
:1002900040000023D0EB020263EBE073009821469C
:1002A0004FEAE074B8EB000061EB0401E9E783F08A
:1002B00000435BE781F0004158E72DE9FE4F81EAFA
:1002C000030404F0004421F0004100944FF0000BBF
:1002D00023F0004350EA01045ED052EA03045BD0ED
:1002E000C3F30A54C1F30A552C44A4F2F334019425
:1002F000A0FB0254C1F3130141F48011C3F31303B3
:1003000043F4801301FB024400FB034E840A970A66
:1003100044EA815447EA8357A4FB076802958D0A93
:1003200005FB07854FEA932C04FB0C542705029D1F
:100330004FEA065847EA1637B5EB08056EEB070C8F
:10034000870E920E47EA811742EA8312A7FB020149
:10035000B6EB0B0164EB00042B0D43EA0C335E1883
:1003600044EB1C50DA465146E7FB0201C5F3130487
:100370004FEA0B3343EA14534FEA0432019C43EA39
:100380000603A4F10C040294009CCDE900B400F033
:100390009DF803B0BDE8F08F00200146F9E70EB5E7
:1003A00040F2334102910021CDE900110A460B468B
:1003B00000F08CF803B000BDC1F30A5210B5C1F3D0
:1003C000130140F2FF3341F480119A4201DA002018
:1003D00010BD40F233439A42A2F2334203DC524250
:1003E00000F043F810BD904010BD2DE9F05F0546C8
:1003F000002092469B4688460646814640241BE0E4
:10040000284641464746224600F02FF853465A46B2
:10041000C01A914110D311461846224600F016F832
:100420002D1A67EB01084F4622460120002100F0FB
:100430000DF817EB00094E41201EA4F10104DFDC8A
:10044000484631462A464346BDE8F09F202A04DB51
:10045000203A00FA02F1002070479140C2F12003D7
:1004600020FA03F3194390407047202A04DB203A16
:1004700021FA02F00021704721FA02F3D040C2F1C4
:1004800020029140084319467047202A06DBCB170B
:10049000203A41FA02F043EAE07306E041FA02F33F
:1004A000D040C2F12002914008431946704710B570
:1004B000141E73F1000408DA401C41F10001921887
:1004C0005B411A4301D120F0010010BD2DE9F04D30
:1004D00092469B4611B1B1FA81F202E0B0FA80F285
:1004E00020329046FFF7B2FF04460F4640EA0A006A
:1004F00041EA0B0153465A46084313D0114653EACA
:10050000010019D0C8F140025046FFF7AEFF054682
:100510000E46504659464246FFF798FF084305D01D
:10052000012004E020463946BDE8F08D0020054357
:1005300046EAE0762C4337430A986305E40AA0EBC9
:1005400008000022FD0A44EA47540A3002D5002080
:100550000146E9E7010510196941DDE9084500197F
:100560006941BDE8F04DA2E7064C074D06E0E068A2
:1005700040F0010394E8070098471034AC42F6D3EA
:10058000FFF7DAFD5C3B00087C3B000800BFFEE79C
:100590007047000010B54FF4806000F013F840B1D0
:1005A0004FF4806000F008F80248007808B102F0CB
:1005B00049FF10BD25000020014908607047000078
:1005C00014040140014600200022074B1B6803EA87
:1005D0000102054B14331B680B4013B10AB1012013
:1005E00000E0002070470000000401400021234982
:1005F0008279002A3AD00A46126803689A430B4669
:100600001A600A1D126803689A430B1D1A6002796A
:1006100011440A6803681A430A60184A08321268CB
:1006200003689A43154B08331A601A1D1268036851
:100630009A43124B0C331A604279102A0ED11A1FBA
:10064000126803681A430D4B08331A601A1D1268AA
:1006500003681A43094B0C331A600DE007494279CD
:1006600011440A6803681A430A6005E002791144DC
:100670000A6803689A430A6070470000000401405A
:1006800030B500228B071C0F0F2303FA04F20B4B2B
:100690008C1053F824309343084C8D1044F82530C7
:1006A00023468C1053F824308C07240F00FA04F4EE
:1006B0002343024C8D1044F8253030BD0800014022
:1006C0002DE9F041024600250026002000230024E9
:1006D000002791F803C00CF00F0591F803C00CF04F
:1006E000100CBCF1000F03D091F802C04CEA0505D4
:1006F00091F800C0BCF1000F31D0146800202BE04D
:100700004FF0010C0CFA00F3B1F800C00CEA03063C
:100710009E4220D183004FF00F0C0CFA03F7BC432C
:1007200005FA03FC4CEA040491F803C0BCF1280F5D
:1007300006D14FF0010C0CFA00FCC2F814C00AE01C
:1007400091F803C0BCF1480F05D14FF0010C0CFA31
:1007500000FCC2F810C0401C0828D1D31460B1F8C6
:1007600000C0BCF1FF0F34DD546800202EE000F122
:10077000080C4FF0010808FA0CF3B1F800C00CEABD
:1007800003069E4221D183004FF00F0C0CFA03F7B1
:10079000BC4305FA03FC4CEA040491F803C0BCF125
:1007A000280F05D100F1080C08FA0CF8C2F81480E3
:1007B00091F803C0BCF1480F07D100F1080C4FF0CD
:1007C000010808FA0CF8C2F81080401C0828CED3A3
:1007D0005460BDE8F0810246002093680B400BB1E5
:1007E000012000E0002070474161704701617047BF
:1007F00010B50121042000F0CDF80121082000F0FF
:10080000C9F80121102000F0C5F80121202000F0D6
:10081000C1F80121402000F0BDF80121802000F046
:10082000B9F80121080200F0B5F810BD00BFFEE7DD
:100830001FB548208DF80F004FF48060ADF80C0014
:1008400003208DF80E0003A92348FFF739FF482045
:100850008DF80F000420ADF80C0003208DF80E0079
:1008600003A91E48FFF72CFF48208DF80F008020B9
:10087000ADF80C0003208DF80E0003A91848FFF70F
:100880001FFF0121084600F085F80A210320FFF729
:10089000F7FE4FF48060019001208DF80A000020DF
:1008A0008DF808000C208DF8090001A8FFF79EFEC6
:1008B0004FF4A06000F052F828208DF800000120CD
:1008C0008DF8030000208DF8010001208DF8020052
:1008D000684600F00BF81FBD0014014000200140E5
:1008E0000010014000BFFEE77047000070B5002116
:1008F00000230F22C47804B3154C246804F4E06488
:10090000C4F5E064210AC1F10403CA40447804FA42
:1009100003F184781440214309010E4C0678A15557
:10092000047804F01F050124AC4005786D11AD007A
:1009300005F1E025C5F8004109E0047804F01F0541
:100940000124AC40044D0678761145F8264070BD70
:100950000CED00E000E400E080E100E0024901432A
:10096000024A1160704700000000FA050CED00E03B
:100970007047000029B1064AD2690243044BDA618C
:1009800004E0034AD2698243014BDA6170470000F8
:100990000010024029B1064A92690243044B9A6151
:1009A00004E0034A92698243014B9A617047000058
:1009B0000010024030B500210022002400232D4DFC
:1009C0006D6805F00C0121B1042905D0082923D157
:1009D00005E0294D056022E0274D05601FE0254D0B
:1009E0006D6805F47012234D6D6805F4803402259E
:1009F00005EB92421CB9214D554305600BE01D4D9E
:100A00006D6805F400351DB11C4D5543056002E0CD
:100A1000194D5543056002E0174D056000BF00BF4A
:100A2000144D6D6805F0F0010909154D6B5C056802
:100A3000DD4045600F4D6D6805F4E061090A104D19
:100A40006B5C4568DD4085600A4D6D6805F460515A
:100A5000C90A0B4D6B5C4568DD40C560054D6D688E
:100A600005F44041890B074D6B5CC568B5FBF3F598
:100A7000056130BD0010024000127A0000093D00FF
:100A80004800002058000020704710B500F002F820
:100A900010BD00000CB500200190009033480068A4
:100AA00040F480303149086000BF3048006800F4ED
:100AB000003000900198401C0190009818B90198EE
:100AC000B0F5A06FF1D12948006800F4003010B1F2
:100AD0000120009001E0002000900098012843D1FF
:100AE0002348006840F0100021490860084600686B
:100AF00020F0030008600846006840F0020008602B
:100B00001A484068194948600846406848600846E5
:100B1000406840F4806048600846406820F47C10DB
:100B200048600846406840F4E8104860084600689D
:100B300040F08070086000BF0C48006800F0007052
:100B40000028F9D00948406820F0030007494860B0
:100B50000846406840F00200486000BF0348406813
:100B600000F00C000828F9D10CBD00000010024074
:100B700000200240042808D14FF0E021096941F02B
:100B800004014FF0E022116107E04FF0E021096914
:100B900021F004014FF0E02211617047704700001E
:100BA00010B51348006840F001001149086008467C
:100BB0004068104908400E494860084600680E49E0
:100BC00008400B4908600846006820F4802008604F
:100BD0000846406820F4FE0048604FF41F0088601B
:100BE000FFF753FF4FF000600449086010BD00009C
:100BF000001002400000FFF8FFFFF6FE08ED00E0E5
:100C000010B50121880700F093F8002857D0012182
:100C1000880700F07BF82A480078401C28490870B3
:100C2000084600780A2827DB00200870254800784D
:100C3000401C2449087024480078401C2249087050
:100C40002248007878B122480068401E2049086098
:100C50000846006838B900201C49087001201D4969
:100C600008701D49087017480078322802DB002000
:100C70001449087000F0A2FC18480078F8B1184830
:100C80000068401C16490860084600681549096854
:100C9000884204DC01211448FFF7A8FD03E001218C
:100CA0001148FFF7A1FD0E480068C82807DB0020A7
:100CB0000B49086009480078401E0849087010BDBB
:100CC0000800002064000020090000202900002006
:100CD0002C00002002000020270000200C00002033
:100CE000680000206C0000200008014010B50121C0
:100CF000054800F01DF828B10121034800F006F86E
:100D000002F00AFD10BD000000040040CA43028248
:100D1000704721B1028842F00102028004E002889B
:100D20004FF6FE731A40028070470146888C704768
:100D300030B50246002000230024158A05EA01038D
:100D4000958905EA010413B10CB1012000E00020EF
:100D500030BD1AB183890B43838102E083898B43C1
:100D60008381704781847047002202881D4B98421E
:100D70000ED01D4B98420BD0B0F1804F08D01B4BCA
:100D8000984205D01A4B984202D01A4B984204D18F
:100D90004FF68F731A404B881A43174B984207D06F
:100DA000164B984204D04FF6FF431A40CB881A43A3
:100DB00002808B8883850B8803850A4B98420BD071
:100DC000094B984208D00E4B984205D00D4B9842E3
:100DD00002D00D4B984201D10B7A03860123838206
:100DE00070470000002C0140003401400004004026
:100DF00000080040000C00400010004000140040BB
:100E000000400140004401400048014010B540F25C
:100E10002551074800F02CF8012807D1044800F0BC
:100E2000E3F8C4B22146024800F0E3F810BD000028
:100E30000038014010B540F22551054800F018F87F
:100E4000012804D1024800F0CFF80249088010BD03
:100E5000004800409000002021B1828942F40052F5
:100E6000828104E082894DF6FF731A4082817047C7
:100E700070B50246002400230025002040F66A16C3
:100E8000B14200D100BFC1F3421501F01F0301269A
:100E900006FA03F3012D02D19689334006E0022DB4
:100EA00002D1168A334001E0968A33400C120126A3
:100EB00006FA04F41688344013B10CB1012000E0A6
:100EC000002070BDF0B50346002400260025002058
:100ED00040F66A17B94200D100BF1846C1F3421468
:100EE00001F01F06012707FA06F5012C01D10C308D
:100EF00004E0022C01D1103000E014301AB1076870
:100F00002F43076002E00768AF430760F0BD0000B1
:100F10002DE9F04786B005460E460024A24600BFE4
:100F2000A1460027B08900B100BF2F462C8A4CF69D
:100F3000FF700440F08804432C82AC894EF6F31015
:100F40000440B08831890843718908430443AC8167
:100F5000AC8A4FF6FF400440B0890443AC8201A83C
:100F6000FFF728FD1F48874202D1DDF810A001E0FD
:100F7000DDF80CA0A88900F4004040B10AEBCA00DB
:100F800000EB0A1031684900B0FBF1F807E00AEB0A
:100F9000CA0000EB0A1031688900B0FBF1F8642048
:100FA000B8FBF0F004012009642101FB1089A88935
:100FB00000F4004040B1322000EBC900B0FBF1F07A
:100FC00000F00700044308E0322000EB0910642120
:100FD000B0FBF1F000F00F0004432C8106B0BDE837
:100FE000F08700000038014001468888C0F30800FF
:100FF0007047C1F308028280704700BFFEE700001F
:101000000FB4054B10B503A9044A029800F02CF860
:1010100010BC5DF814FB0000D917000898000020F0
:101020000FB4084B10B504A902AA039800F01CF8ED
:10103000044602A9002000F042FA204610BC5DF8E8
:1010400014FB0000BF14000802E008C8121F08C10A
:10105000002AFAD170477047002001E001C1121F39
:10106000002AFBD1704700002DE9FF4F8DB00F46DD
:101070000546002606E025280BD0DDE90F12904733
:101080006D1C761C28780028F5D111B03046BDE8DB
:10109000F08F0024A246A1460122E94900E0044362
:1010A00015F8013F203B02FA03F00842F7D12878F7
:1010B0002A2810D06FF02F022878A0F130010929DA
:1010C00014D80AEB8A0102EB410144F0020400EB60
:1010D000010A6D1CF0E701CF5FEA000A03D544F472
:1010E0000054CAF1000A44F002046D1C28782E282E
:1010F00017D115F8010F44F004042A280ED06FF020
:101100002F022878A0F1300109290AD809EB8901BA
:1011100002EB410100EB01096D1CF2E757F8049B5B
:101120006D1C28786C280FD006DC4C2817D0682856
:101130000DD06A2814D104E0742810D07A280FD179
:101140000DE044F400140AE044F4801401E044F497
:1011500040146978814202D104F580146D1C6D1C25
:1011600028786E281ED00CDC632830D004DC0028E0
:101170008BD0582811D19FE0642867D069280CD102
:1011800064E073282DD004DC6F2872D0702804D15D
:1011900094E075286ED078286DD0DDE90F12904765
:1011A000761C4BE1C4F30250022806D0032809D074
:1011B000042801CF09D0066040E101CFF117C0E952
:1011C00000613BE101CF068038E1067036E117F897
:1011D000040B8DF8000000208DF80100EB46012083
:1011E00003E057F804BB4FF0FF3061074FF00001F8
:1011F00002D40DE008F10101884649450FDA804527
:10120000F8DB1BF808100029F4D108E008F101010F
:1012100088468142FADB1BF808100029F6D1DDE987
:101220000F23AAEB08008146214600F031F9304433
:1012300000EB080604E0DDE90F121BF8010B9047F4
:10124000B8F10108F7D221464846F2E00A21C4F37A
:1012500002524FF0000B0891022A04D001CFC117AF
:10126000032A09D00AE0FF1D27F00707F7E802016B
:1012700008E02CE01EE01FE000B2C117042A01D1F3
:1012800040B2C117021E71F1000206DA0023D0EB52
:10129000030063EB01012D2202E0220504D52B227D
:1012A0008DF82420012203E0E20701D02022F7E795
:1012B000904653E00A210BE0102109E010214FF085
:1012C000000B44F004044FF00809089103E00821E2
:1012D0004FF0000B0891C4F30252022A04D001CF50
:1012E0000021032A06D006E0FF1D27F00707F7E8D4
:1012F000020103E080B2042A00D1C0B24FF000081E
:1013000022072BD52A78702A07D0DDF820C08CF070
:10131000100C5CEA0B0C05D00EE040228DF8242066
:10132000012208E050EA010306D030238DF8243072
:101330008DF8252002229046089B83F0080353EA8B
:101340000B030BD150EA010201D1620706D530220E
:101350008DF824204FF00108A9F101092A78582AB4
:1013600004D038A20B9208AA0A920BE03AA2F9E73D
:101370005B46089AFFF739F80B9B9B5C0A9A521E52
:101380000A92137050EA0102F2D10A98ADEB000004
:1013900000F1200B600702D524F4803401E04FF007
:1013A0000109D94502DDA9EB0B0000E0002000EBAC
:1013B0000B0141440890AAEB010AE00306D4DDE9E1
:1013C0000F232146504600F063F806444FF0000911
:1013D00008E009A911F80900DDE90F12904709F1A9
:1013E0000109761CC145F4DBE0030CD5DDE90F23D0
:1013F0002146504600F04CF8064404E0DDE90F12A7
:1014000030209047761C0899481E08900029F5DC8A
:1014100008E00A980A990078491C0A91DDE90F1240
:101420009047761CBBF10001ABF1010BF1DC2146CA
:101430005046DDE90F2300F019F806446D1C21E643
:10144000092801003031323334353637383961629A
:10145000636465660000000030313233343536375E
:101460003839414243444546000000002DE9F0412F
:10147000044600251E461746880404D405E0394674
:101480002020B0476D1C641EF9D52846BDE8F081C8
:101490002DE9F041044600251E469046C80301D5BB
:1014A000302700E02027880404D505E0414638466F
:1014B000B0476D1C641EF9D52846BDE8F0810A6866
:1014C000531C0B601070704770B500250026042176
:1014D0001848FFF780F990B9022409E00421154863
:1014E000FFF779F9012800D106E0012000F028F982
:1014F000601EC0B2041EF1D100BF04B901258021D5
:101500000D48FFF768F990B9022409E080210A48E4
:10151000FFF761F9012800D106E0012000F010F981
:10152000601EC0B2041EF1D100BF04B90226A81982
:10153000C0B270BD002001400010014070B50646E9
:101540000C46154616B1012E22D110E04FF4804111
:101550001148FFF74BF9204600F0F2F84FF48041B4
:101560000D48FFF741F9284600F0EAF811E04FF482
:1015700080410948FFF73AF9204600F007F94FF497
:1015800080410548FFF730F9284600F0FFF800E0F9
:1015900000BF00BF70BD000000180140024A10608B
:1015A000024A1160704700005C00002060000020CB
:1015B00001490860704700005C00002010B54648F3
:1015C0000068002819DD45480078434909688842C9
:1015D00009DA4FF400614248FFF708F90121414858
:1015E000FFF702F931E04FF400613D48FFF7FCF8E6
:1015F00001213C48FFF7F8F827E037480068002849
:101600001ADA35480068404234490978884209DDD1
:101610004FF400613248FFF7E7F801213148FFF746
:10162000E5F812E04FF400612D48FFF7DDF80121E5
:101630002C48FFF7D9F808E04FF400612848FFF77D
:10164000D3F801212748FFF7CFF827480068002882
:1016500019DD2248007824490968884209DA4021C6
:101660002048FFF7C3F84FF400712048FFF7BCF89B
:1016700031E040211B48FFF7B7F84FF400711B48D9
:10168000FFF7B2F827E01848006800281ADA164871
:101690000068404211490978884209DD402111481B
:1016A000FFF7A2F84FF400711048FFF79FF812E01F
:1016B00040210C48FFF798F84FF400710B48FFF7F2
:1016C00093F808E040210748FFF78EF84FF40071C7
:1016D0000648FFF789F810BD5C0000206400002078
:1016E0000010014000140140600000200020014073
:1016F00001490860704700006000002010B56FF0DD
:101700000400FFF737FA0A4800680A49B0FBF1F015
:10171000094908700846007800EB4001C1EBC01091
:101720004FF6FF7101EAC0000449088010BD0000B7
:101730003400002000127A00920000209400002063
:101740000146114A12884A434FF0E0235A610022B1
:101750009A611A46126942F001021A6100BF4FF005
:10176000E022106900F001021AB100F48032002A70
:10177000F5D04FF0E022126922F001024FF0E02391
:101780001A6100229A617047940000200146114AB4
:1017900012784A434FF0E0235A6100229A611A46B8
:1017A000126942F001021A6100BF4FF0E022106995
:1017B00000F001021AB100F48032002AF5D04FF097
:1017C000E022126922F001024FF0E0231A610022A8
:1017D0009A6170479200002030B504460D460A2CED
:1017E00003D129460D20FFF7F7FF06490C8000BF03
:1017F0000448001F008800F080000028F8D0204630
:1018000030BD000004380140014800687047000006
:101810006C00002010B54FF480713748FEF7E6FFEA
:1018200001203649087000213548FFF79BFA012155
:101830003348FFF76EFA00BF3148FFF776FA0B28FE
:10184000FADB02202D490870C1012B48FEF7CCFFBE
:1018500000212B48FFF786FA10E02948FFF765FAC8
:101860004EF66021884209DD002024490870254990
:10187000086000212248FFF74CFA10BD4FF4804168
:101880002148FEF7A8FF0028E7D000211C48FFF7F9
:1018900069FA10E01A48FFF748FA4EF660218842CC
:1018A00009DD002015490870164908600021144818
:1018B000FFF72FFAE1E74FF480411348FEF78BFF63
:1018C0000128E7D00E48FFF730FA104908600021E0
:1018D0000B48FFF71EFA0D48006800EB00104000AF
:1018E0004FF4FA6190FBF1F00649086000200349CB
:1018F000087000BFC1E70000001401408000002014
:101900000008004084000020000C01408C000020F2
:1019100001480068704700005C0000200148006832
:10192000704700006000002010B50446204601F01A
:101930009DFE4FF4FA70FFF703FFFFF76BFF052CD6
:1019400007D11A4800681A49086000201949087030
:101950002AE00F2C07D1154800681549486001207E
:101960001449087020E0192C07D11048006810496C
:10197000886002200F49087016E0052C09DD0F2C45
:1019800007DA0A4800680A49086103200949087013
:101990000AE00F2C08DD192C06DA04480068044917
:1019A000C86004200349087010BD000084000020B6
:1019B0009C0000208800002010B5012000F050F8A5
:1019C0006420FFF7BDFE10BD08B510208DF80300A0
:1019D0004002ADF8000003208DF8020069461E4861
:1019E000FEF76EFE10208DF803008002ADF80000B7
:1019F00003208DF8020069461748FEF761FE1020AB
:101A00008DF80300C002ADF8000003208DF802003D
:101A100069461148FEF754FE10208DF80300FF20A0
:101A2000ADF8000003208DF8020069460B48FEF770
:101A300047FE6420FFF784FE382000F011F80C20E8
:101A400000F00EF8062000F00BF8012000F008F876
:101A50006420FFF775FE08BD00100140001C014026
:101A600010B504461420FFF791FE4FF47F00134990
:101A700008600846046041141148FEF7B5FE4FF4B3
:101A800080410F48FEF7B0FE4FF400410C48FEF7CE
:101A9000ABFE0A20FFF77AFE4FF400410848FEF73C
:101AA000A5FE0A20FFF772FE4FF400410448FEF73E
:101AB0009BFE0A20FFF76AFE10BD0000101C0140CB
:101AC0000010014010B504461420FFF75FFE4FF4EC
:101AD0007F00134908600846046041141148FEF76E
:101AE00085FE4FF480410F48FEF77EFE4FF4004123
:101AF0000C48FEF779FE0A20FFF748FE4FF400413C
:101B00000848FEF773FE0A20FFF740FE4FF400413D
:101B10000448FEF769FE0A20FFF738FE10BD0000FA
:101B2000101C01400010014038B5054600248020FB
:101B3000FFF796FF00BF04E01D49085DFFF7C2FFF5
:101B4000641C0A2CF8DBC020FFF78AFF002404E0A5
:101B50001849085DFFF7B6FF641C052CF8DB002070
:101B60008DF803002A4614A16846FFF759FA8A2027
:101B7000FFF776FF002404E01DF80400FFF7A2FF42
:101B8000641C032CF8DB0E480278521C0AA168463C
:101B9000FFF746FAC620FFF763FF002404E01DF8B4
:101BA0000400FFF78FFF641C032CF8DB38BD000036
:101BB000EC3A0008F73A00082530336400000000D2
:101BC00001000020F8B505460E4600248020FFF7EE
:101BD00047FF00BF04E01C49085DFFF773FF641C6A
:101BE0000B2CF8DBC020FFF73BFF002404E0174973
:101BF000085DFFF767FF641C0B2CF8DB00208DF8F5
:101C000003002A4612A16846FFF70AFA8320FFF76D
:101C100027FF002404E01DF80400FFF753FF641CB5
:101C2000032CF8DB32460AA16846FFF7F9F9C32016
:101C3000FFF716FF002404E01DF80400FFF742FF41
:101C4000641C032CF8DBF8BDFD3A00080D3B0008CE
:101C5000253033640000000070B505460024802064
:101C6000FFF7FEFE00BF04E01E49085DFFF72AFFF4
:101C7000641C0E2CF8DBC020FFF7F2FE1A48007837
:101C8000012804D002280CD003281ED113E0002420
:101C900004E01649085DFFF715FF641C0B2CF8DB08
:101CA0001DE0002404E01249085DFFF70BFF641CEF
:101CB000092CF8DB13E0002404E00E49085DFFF76F
:101CC00001FF641C0A2CF8DB09E0002404E00A4947
:101CD000085DFFF7F7FE641C0B2CF8DB00BF00BFAC
:101CE00070BD00001D3B00087C0000202C3B00085C
:101CF000383B0008423B00084D3B000870B50646E3
:101D00000C46154616B1012E22D110E04FF4805139
:101D10001148FEF76BFD2046FFF712FD4FF480518E
:101D20000D48FEF761FD2846FFF70AFD11E04FF46C
:101D300080510948FEF75AFD2046FFF727FD4FF472
:101D400080510548FEF750FD2846FFF71FFD00E0D3
:101D500000BF00BF70BD00000018014008B5102092
:101D60008DF803000002ADF8000003208DF802009A
:101D700069460848FEF7A4FC10208DF80300800295
:101D8000ADF8000003208DF8020069460148FEF717
:101D900097FC08BD00180140FEF72AFD4FF4A06033
:101DA000FEF7DCFDFFF7AAFCFFF7D8FFFFF70CFEFC
:101DB000FEF73EFD01F0CAFD01F06EFC01F0F0FD02
:101DC0004FF4E13001F038FE01F034FAA1E051485F
:101DD000007848287ED100204F4908705A204D498C
:101DE000087000210846FFF7D9FB4C480078401CDA
:101DF0004A4908700878C11700EB91718910A0EB6F
:101E00008101464A11701046007830B1012816D081
:101E1000022827D0032862D147E0012040490870FA
:101E200000204049087001203F4908703F49087070
:101E30003F4908703F4908703F49087050E0012051
:101E4000374908700020374908700120364908706A
:101E500036490870394908703549087000203549FD
:101E600008703DE001202E49087000202D490870BF
:101E700001202D4908702D49087000203049087054
:101E800001202B49087000202A4908702D4908704C
:101E9000294908702C4908702C4908602C490860B1
:101EA0002C4908702C4908701AE001201C49087060
:101EB00000201C49087001201B4908701B4908704C
:101EC0001E4908701A4908700020244908702449E6
:101ED000087000E005E001201749087000E000BF2D
:101EE00000BF0E48007830B1012807D0022808D082
:101EF00003280CD108E000F035F809E000F0FEF905
:101F000006E000F0A7FB03E000F0FCFE00E000BFED
:101F100000BF5CE7000000207400002001000020EA
:101F20000200002003000020040000200500002023
:101F30002500002026000020270000201800002097
:101F40001900002028000020240000201C00002090
:101F500020000020060000200700002029000020AB
:101F60002A00002070B5D348007805287ADB0020CD
:101F7000D0490870D049086800EBD0714910A0EB37
:101F80004101CD4A116010460068E0B9CB480078A5
:101F9000C8B1FFF799FACA4908700846007860B1DD
:101FA000C848007848B1C7480078401EC549087045
:101FB000962211460020FFF7C1FAC148007810B9F7
:101FC0000320C0490870BC48006801281DD1BE48E4
:101FD0000078D0B1FFF71EFCBC4800681E280DD861
:101FE000BB48007850B1BA480078401EB849087024
:101FF0004FF4967211460020FFF780FEB348006848
:102000001E2802D30320B2490870AB480068401C68
:10201000A9490860AF480078401CAE4908700846DE
:10202000007828284CDB00200870AB480078401C62
:10203000A9490870084600780A281FDB00200870AC
:10204000A6480068401CA5490860A548007850B122
:1020500008460068032190FBF1F201FB12009F4942
:10206000086009E09FE09D49086800EBD0714910C5
:10207000A0EB4101994A1160FFF79EFC9748006868
:1020800030B99148007818B190480068FFF74CFDCE
:1020900092480068012808D19248007828B19248F7
:1020A000017892480078FFF78DFD8C48006802287F
:1020B00006D18B48007818B18D480078FFF7CCFD29
:1020C0008C48007801286ED100208A4908708A481F
:1020D00000784138142867D2DFE800F00A2A4B67FD
:1020E00086919CDBA7B2DBDBBDC3C9CDD1D581D83E
:1020F000FFF70EFC002803DCFFF710FC002812DDC0
:10210000FFF706FC0446FFF709FC844205DBFFF7F6
:10211000FFFB0446FFF7ECFA09E0FFF7FFFB04467C
:10212000FFF746FA03E014210846FFF737FAB1E05B
:10213000FFF7EEFB002803DBFFF7F0FB002812DAC5
:10214000FFF7E6FB0446FFF7E9FB844205DCFFF7F7
:10215000DFFB0446FFF7CCFA0AE0FFF7DFFB04469B
:10216000FFF726FA04E06FF01D010846FFF716FAA4
:1021700090E0FFF7CDFB0A38002803D50020FFF7D9
:1021800017FA06E0FFF7C4FBA0F10A042046FFF7A8
:102190000FFAFFF7C3FB0446FFF7BAFB05462146DB
:1021A000FFF7FCF976E076E073E0FFF7B7FB0A385B
:1021B000002803D50020FFF79BFA06E0FFF7AEFBEF
:1021C000A0F10A042046FFF793FAFFF7A7FB0446A5
:1021D000FFF79EFB05462146FFF7E0F95AE0002194
:1021E0000846FFF7DBF955E0FFF798FB441DFFF7C2
:1021F0008FFB451D2146284601F074FA4AE0FFF79F
:102200008DFB441FFFF784FB451F2146284601F044
:1022100069FA3FE03248007818B100203049087070
:1022200002E001202E49087034E02448007818B1FB
:1022300000202249087002E001202049087029E0AE
:102240002148007818B100201F49087002E00120E1
:102250001D4908701EE0FA2211460020FFF74EFDCE
:1022600018E0642211460020FFF768F912E01920F7
:1022700001F0FCF90EE00F2001F0F8F90AE005206A
:1022800001F0F4F906E001F0E5F903E001F0F8F9F6
:1022900000E000BF00BF1248007850B101F0F4FA2E
:1022A00013480078012804D011480078022800D093
:1022B00000BF70BD090000201000002002000020B7
:1022C00030000020260000200400002084000020B0
:1022D000270000200A0000200B000020140000202E
:1022E000030000200500002076000020750000207B
:1022F0007C000020740000200000002010B5C248BF
:102300000078012870D10020BF490870BF480078CC
:1023100047380E2866D2DFE800F02665313C656557
:10232000474D53575B5F0762B948007898B100206A
:10233000B7490870B748007840B16FF01D010846F2
:10234000FFF72CF94FF47A70FFF7FAF914210846D9
:10235000FFF724F906E000210846FFF71FF90120E6
:10236000AB4908703FE0AC48007818B10020AA499A
:10237000087002E00120A849087034E0A7480078FE
:1023800018B10020A549087002E00120A349087097
:1023900029E0A348007818B10020A149087002E0A4
:1023A00001209F4908701EE0FA2211460020FFF725
:1023B000A5FC18E0642211460020FFF7BFF812E0E8
:1023C000192001F053F90EE00F2001F04FF90AE057
:1023D000052001F04BF906E001F03CF903E001F0C3
:1023E0004FF900E000BF00BF8E48007805286FDB82
:1023F00000208C4908708C49086800EBD0714910A6
:10240000A0EB4101884A11601046006878BB834800
:10241000007860B38048007848BB7D48007830BBC6
:1024200000F0A4FF81480078032831DB6FF01D0124
:102430000846FFF7B3F84FF47A70FFF781F90021EF
:102440000846FFF7ABF81920FFF76EFA0520FFF7F3
:102450006BFA0F20FFF768FA7548006874498968BD
:10246000884205D932210020FFF798F804E00FE0F8
:1024700000213220FFF792F800BFFFF725F800286F
:10248000FBD114210846FFF789F80020674908703E
:102490006548006801283AD16148007828B3FFF701
:1024A00013F810BB5A480078F8B9FFF7B3F9614840
:1024B000006805280DD85F48006850B10021084623
:1024C000FFF76CF8962211460020FFF737F81EE060
:1024D00077E058480068142808D956480068322820
:1024E00004D814210846FFF759F810E05148006855
:1024F000322808D94F480068962804D82321084676
:10250000FFF74CF803E032210846FFF747F846484A
:102510000068401C4449086047480078401C464910
:1025200008700846007828284BDB002008704348D4
:102530000078401C41490870084600780A281EDBD4
:10254000002008703E480068401C3D490860324841
:10255000007848B108460068032190FBF1F201FBC6
:1025600012003749086008E03549086800EBD0716F
:102570004910A0EB4101324A1160FFF71DFA3048C3
:10258000006830B92648007818B12A480068FFF77B
:10259000CBFA2B480068012808D12A48007828B1D6
:1025A0002948017829480078FFF70CFB2448006887
:1025B000022806D11848007818B125480078FFF79E
:1025C0004BFB15480078F0B111480078D8B901F0FC
:1025D0005BF91F480078012804D002280CD003289A
:1025E0000FD104E023210846FEF7D8FF0AE023219B
:1025F0001420FEF7D3FF05E014212320FEF7CEFFC1
:1026000000E000BF00BF10BD7400002000000020EB
:1026100018000020300000200300002002000020ED
:1026200004000020090000201000002026000020E7
:102630009C000020840000200A0000200B000020E5
:102640001400002005000020760000207500002006
:102650007C00002010B5F948007805287EDB0020BA
:10266000F6490870F649086800EBD0714910A0EBF4
:102670004101F34A116010460068002866D1F14814
:102680000078002862D0FEF71FFFEF490870084667
:102690000078002851D0ED48007850B9FFF738F99C
:1026A000EB490860FFF73AF9EA4908600120E74979
:1026B00008700020E8490870E3480078012804D039
:1026C000022814D0032836D123E06FF01D010846FC
:1026D000FEF764FF4FF4FA70FFF732F8142132204E
:1026E000FEF75CFF4FF4967000F090FE24E06FF070
:1026F0001D010846FEF752FF4FF4FA70FFF720F86D
:1027000032211420FEF74AFF4FF4967000F07EFE4F
:1027100012E06FF01D010846FEF740FF4FF4FA701B
:10272000FFF70EF814213220FEF738FF4FF49670B1
:1027300000F06CFE00E000BF08E00120C649087010
:102740000020C24908700120C4490870BC480068D4
:1027500001285DD1C2480078002800E036E157D05A
:10276000FFF758F8BF480078002851D0BB480078E0
:1027700000284DD0BC4800680A2818D3BA48006821
:10278000642814D2B2480068401F0A2804DDB0480B
:102790000068401FAE490860AE480068401F0A2824
:1027A00036DDAC480068401FAA49086030E0AE48FA
:1027B0000068642818D3AC480068C82814D2A4481C
:1027C0000068401D232804DAA1480068401DA04984
:1027D0000860A0480068401D232819DA9D48006859
:1027E000401D9C49086013E0994800680A3032286F
:1027F00004DA97480068401D9549086095480068CC
:102800000A30322804DA93480068401D9149086074
:102810008B480068401C8A49086094480078401C36
:102820009249087008460078282832DB002008709A
:102830008F480078401C8E490870084600780A28A6
:1028400010DB002008708B480068401C8949086034
:10285000086800EBD0714910A0EB4101854A116076
:10286000FFF7AAF88348006830B97D48007818B1AE
:102870007D480068FFF758F97E480068012808D1B4
:102880007D48007828B17D4801787D480078FFF7C1
:1028900099F97C480078401E7A490870084600780B
:1028A000A0B900206D4908700120764908706B4876
:1028B000007858B1FFF72CF865490860FFF72EF84B
:1028C0006449086000210846FEF768FE6E480078FB
:1028D00001287BD100206C4908706C480078413891
:1028E000142874D2DFE800F00A366383D4E0F7736B
:1028F000F5F4F3F2F1F0EFEEEDECA1A95448006825
:10290000002803DC5348006800281BDD504800689D
:102910005049096888420ADB4D4800684D49086003
:10292000084601684A480068FEF738FE0EE049484C
:102930000068474908604748016845480068FEF755
:102940002DFE03E014210846FEF728FE012043492E
:10295000087016E13E480068002803DB3D48006827
:1029600000281BDA3A4800683A49096888420ADCBC
:1029700037480068374908600846016834480068ED
:10298000FEF70CFE0FE0334800683149086031481B
:1029900001682F480068FEF701FE04E06FF01D019A
:1029A0000846FEF7FBFD01202C490870E9E02848A5
:1029B00000680A3800280BD5002025490860254802
:1029C000016823480068FEF7E9FD0CE0DAE0D7E093
:1029D0001F4800680A381E4908601E4801681C48E4
:1029E0000068FEF7DBFD01201C490870C9E01948AA
:1029F00000680A38002809D50020164908600846F2
:102A0000016813480068FEF7C9FD0AE01148006834
:102A10000A3810490860084601680D480068FEF74A
:102A2000BDFD01200D490870ABE000210846FEF70E
:102A3000B5FD012009490870A3E09EE009000020CF
:102A4000100000200200002030000020260000209E
:102A50001C00002020000020250000202400002071
:102A60000400002027000020840000200A0000202D
:102A70000B0000201400002005000020760000203C
:102A800075000020190000207400002000000020C4
:102A900091480168491D91480068401D00F022FEE0
:102AA00001208F4908706CE08B4A1268511F8B4AD5
:102AB0001268501F00F016FE01208949087060E07E
:102AC00058E053E04EE049E042E03BE02FE023E0F5
:102AD00017E00BE0FFE78348007818B10020814938
:102AE000087002E001207F4908704AE07E480078C3
:102AF00018B100207C49087002E001207A49087072
:102B00003FE07A48007818B100207849087002E068
:102B100001207649087034E07548007818B100202B
:102B20007349087002E001207149087029E071487A
:102B3000007818B100206F49087002E001206D494B
:102B400008701EE0FA2211460020FFF7D7F818E0BF
:102B5000642211460020FEF7F1FC12E0192000F07B
:102B600085FD0EE00F2000F081FD0AE0052000F059
:102B70007DFD06E000F06EFD03E000F081FD00E069
:102B800000BF00BF57480078002845D040215A4870
:102B9000FDF721FE01280CD110215748FDF71BFE3F
:102BA000012806D04FF480715348FDF714FE012828
:102BB00011D140215048FDF70EFE012835D1010208
:102BC0004D48FDF708FE01282FD110214A48FDF796
:102BD00002FE012829D04948007880B9444800788D
:102BE00068B94448007850B9FEF792FE3B49086046
:102BF000FEF794FE38490860012040490870002023
:102C00003F49087034480068401F002805D500215E
:102C100032480068FEF7C2FC5CE02F480068411FA4
:102C20002E480068FEF7BAFC54E010213248FDF748
:102C3000D2FD01280CD140212F48FDF7CCFD012801
:102C400006D04FF480712C48FDF7C5FD012811D145
:102C500010212948FDF7BFFD012835D10102264882
:102C6000FDF7B9FD01282FD140212348FDF7B3FD21
:102C7000012829D02148007880B91D48007868B91A
:102C80001C48007850B9FEF743FE14490860FEF76F
:102C900045FE1149086001201849087000201849B4
:102CA00008700E480068401F002805D50A480168D2
:102CB0000020FEF773FC0DE008490968481F06492B
:102CC0000968FEF76BFC05E001200D490870002043
:102CD0000A49087010BD0000200000201C000020E0
:102CE0002400002003000020020000202700002014
:102CF00006000020070000200020014028000020DE
:102D00002500002070B5FE480078012870D1FD48EC
:102D100000780028FAD1FC4800780028F6D1F8495C
:102D20000870FA48007847380F2871D2DFE800F0C1
:102D30002783323D8383484E7175797D0880540026
:102D4000F348007898B10020F1490870F148007804
:102D500040B16FF01D010846FEF720FC4FF47A7079
:102D6000FEF7EEFC14210846FEF718FC06E00021F1
:102D70000846FEF713FC0120E54908705CE0E648D0
:102D8000007818B10020E449087002E00120E2490F
:102D9000087051E0E148007818B10020DF49087060
:102DA00002E00120DD49087046E0DD48007818B1F6
:102DB0000020DC49087002E00120DA4908703BE09D
:102DC000FA2211460020FEF799FF35E064221146F1
:102DD0000020FEF7B3FB2FE0CB48007848B100207D
:102DE000C94908700120CD490870CE4908700EE02D
:102DF00023E00120C349087042F21070CA490860FC
:102E00000020C6490870C4490870C649087013E01C
:102E100011E0192000F02AFC0EE00F2000F026FC43
:102E20000AE0052000F022FC06E000F013FC03E0BD
:102E300000F026FC00E000BF00BFB1480078012888
:102E400077D1B048007818B9AF480078002870D022
:102E50000020AB490870AD48007844286BD006DCF0
:102E600041280BD0422829D043287CD147E045286F
:102E70007AD0462879D05328F7D17AE0FEF748FD7A
:102E8000002803DCFEF74AFD002812DDFEF740FDB6
:102E90000446FEF743FD844205DBFEF739FD044698
:102EA000FEF726FC09E0FEF739FD0446FEF780FB3D
:102EB00003E014210846FEF771FB80E0FEF728FDD1
:102EC000002803DBFEF72AFD002812DAFEF720FDBA
:102ED0000446FEF723FD844205DCFEF719FD044697
:102EE000FEF706FC0AE0FEF719FD0446FEF760FB5C
:102EF00004E06FF01D010846FEF750FB5FE0FEF7AF
:102F000007FD0A38002803D50020FEF751FB06E034
:102F1000FEF7FEFCA0F10A042046FEF749FBFEF78F
:102F2000FDFC0446FEF7F4FC05462146FEF736FBA1
:102F300045E045E0FFE7FEF7F1FC0A38002803D53D
:102F40000020FEF7D5FB06E0FEF7E8FCA0F10A043E
:102F50002046FEF7CDFBFEF7E1FC0446FEF7D8FC69
:102F60000546214602E029E012E01CE0FEF716FBD0
:102F700025E06748007818B100206549087002E034
:102F800001206349087000210846FEF707FB16E0A0
:102F9000FEF7C4FC441DFEF7BBFC451D2146284638
:102FA00000F0A0FB0BE0FEF7B9FC441FFEF7B0FCFD
:102FB000451F2146284600F095FB00E000BF00BFFA
:102FC0005A480078052871DB002058490870584994
:102FD000086800EBD0714910A0EB4101544A116020
:102FE0001046006818BB4D48007800B34A48007886
:102FF000E8B947480078D0B900F0B8F94D480078F2
:10300000032814DB6FF01D010846FEF7C7FA4FF4E2
:103010007A70FEF795FB00210846FEF7BFFA012003
:103020003949087000203D4908703E490870FEF794
:103030004BFA70B93448007858B100203249087012
:103040000120364908703749087014210846FEF7F8
:10305000A5FA3748006801283AD13148007820B3F2
:10306000FEF732FA08BB2A480078F0B9FEF7D2FB27
:103070002C480078C8B130480068052809D80021DC
:103080000846FEF78BFA962211460020FEF756FA04
:103090001EE029480068052809D927480068322819
:1030A00005D814210846FEF779FA11E08DE0224890
:1030B0000068322808D920480068962804D82321BF
:1030C0000846FEF76BFA03E032210846FEF766FA7F
:1030D00017480068401C1649086018480078401CD2
:1030E000164908700846007828286EDB0020087012
:1030F00013480078401C124908700846007821E007
:1031000074000020290000202A0000200000002078
:1031100018000020300000200300002002000020E2
:1031200004000020270000202C00002009000020BF
:103130001000002026000020840000200A0000204B
:103140000B0000200A281EDB0020087030480068B1
:10315000401C2F4908602F48007848B10846006895
:10316000032190FBF1F201FB12002949086008E0FD
:103170002749086800EBD0714910A0EB4101244AAF
:103180001160FEF719FC2248006830B92248007827
:1031900018B122480068FEF7C7FC1D4800680128E6
:1031A00008D11F48007828B11E4801781E480078D1
:1031B000FEF708FD16480068022806D11548007879
:1031C00018B11A480078FEF747FD12480078F0B1B0
:1031D00017480078D8B900F057FB14480078012848
:1031E00004D002280CD003280FD104E02321084684
:1031F000FEF7D4F90AE023211420FEF7CFF905E009
:1032000014212320FEF7CAF900E000BF00BF70BD03
:10321000140000200300002004000020840000208F
:103220000500002076000020750000207C000020B2
:103230001800002008B510208DF80300C001ADF87B
:10324000000002208DF8020069462E48FDF738FA8A
:1032500010208DF803000120ADF8000002208DF849
:10326000020069462848FDF72BFA10208DF803006C
:103270004020ADF8000002208DF802006946224887
:10328000FDF71EFA10208DF803004001ADF8000094
:1032900002208DF8020069461C48FDF711FA102043
:1032A0008DF80300ADF8000002208DF80200694699
:1032B0001548FDF705FA10208DF803000420ADF83D
:1032C000000002208DF8020069460F48FDF7F8F96A
:1032D00010208DF803000120ADF8000003208DF8C8
:1032E000020069460A48FDF7EBF910210648FDF790
:1032F0007DFA04210448FDF779FA4721632000F0A4
:1033000009F808BD001001400014014000200140F0
:10331000000801407FB505460C4601210846FDF72F
:1033200029FB0020ADF80A00ADF80600ADF8085002
:10333000ADF8044001A94FF08040FDF715FD0122D2
:1033400011469007FDF705FD1C208DF800000120B7
:103350008DF803008DF801008DF802006846FDF736
:10336000C5FA01218807FDF7D4FC7FBD70B5FEF7D3
:10337000ABF80446E4B3012C04D0022C14D0032C87
:1033800041D123E06FF01D010846FEF707F94FF425
:10339000FA70FEF7D5F914213220FEF7FFF84FF44A
:1033A000967000F033F82FE06FF01D010846FEF72D
:1033B000F5F84FF4FA70FEF7C3F932211420FEF746
:1033C000EDF84FF4967000F021F81DE06FF01D014C
:1033D0000846FEF7E3F84FF4FA70FEF7B1F914214E
:1033E0003220FEF7DBF84FF4967000F00FF80BE098
:1033F000FFE7FEF793FA0546FEF78AFA06462946E6
:10340000FEF7CCF800E000BF00BF70BD10B5044669
:103410000FE00120FEF794F9FEF756F848B108488E
:103420000078401C0649087000210846FEF7B6F8EF
:1034300010BD201EA4F10104EBD100BFF8E700008D
:103440002600002070B50320FEF77AF94FF4806162
:103450007A48FDF7C0F9012800D170BD6420784991
:1034600008704FF480617548FDF7B5F900286FD1F9
:1034700002E06420FEF78AF94FF480616F48FDF79F
:10348000AAF90028F5D04FF480616C48FDF7A3F944
:1034900001280AD102E06420FEF778F94FF4806138
:1034A0006648FDF798F90128F5D000242EE00026A3
:1034B00029E002E00A20FEF769F94FF480615F48D5
:1034C000FDF789F90028F5D0002507E06420FEF714
:1034D0005DF9681C85B2142D00DDBEE74FF48061F4
:1034E0005648FDF778F90128F0D05648005D4010A5
:1034F00054490855082D04DB0846005D40F0800063
:1035000008550025761C082ED3DB641C042CCEDB6A
:103510004C4881784CA0FDF773FD4A4880784028DC
:103520007ED016DC15283DD009DCA0F10700072865
:103530007AD2DFE800F03B2B4379794F4B00162815
:1035400038D018281AD019283CD01C286CD125E076
:1035500072E047285CD008DCA0F14200052863D265
:10356000DFE800F04052485A4C004A283ED052282A
:1035700008D05A280ED05E2856D12FE0412033497A
:10358000087055E042203149087051E043202F492E
:1035900008704DE044202D49087049E053202B4924
:1035A000087045E045202949087041E04620274938
:1035B00008703DE047202549087039E0482023493C
:1035C000087035E049202149087031E04A201F4940
:1035D00008702DE04B201D49087029E04C201B4944
:1035E000087025E04D201949087021E04E20174948
:1035F00008701DE04F201549087019E0502013494C
:10360000087015E00CE00FE05120104908700FE041
:1036100052200E4908700BE054200C49087007E056
:1036200055200A49087003E05A200849087000BF75
:1036300000BF01200649087000BF0EE700140140DA
:10364000190000207000002025780A0000000020EA
:103650007400002000B5FEF7D7F80346052B04DD03
:10366000192B02DA581E00F001F800BD0F21024AA2
:1036700011700249086070470C0000206C000020A7
:1036800000B5FEF7C1F80346052B04DD192B02DA5D
:10369000581CFFF7EBFF00BD08B548208DF803006C
:1036A0004FF48050ADF8000003208DF80200694609
:1036B0000B48FDF705F848208DF803004FF4006033
:1036C000ADF8000003208DF8020069460448FCF7BD
:1036D000F7FF41F61F41312000F0A6F808BD0000B9
:1036E00000080140322800DB3220322900DB322181
:1036F00010F1320F01DC6FF0310011F1320F01DCFB
:103700006FF03101024A1060024A116070470000F8
:103710005C000020600000202DE9F0473748007869
:10372000401C364908704FF400613548FDF753F8E6
:103730003449097888420BD033480078401C32491C
:1037400008704FF400612E48FDF745F82D490870C8
:103750004FF480512A48FDF73EF82C4909788842F9
:103760000BD02B480078401C294908704FF4805139
:103770002348FDF730F82549087020480078642870
:1037800039D100201D4908701F4800784006000EFE
:10379000204908701E4800784006000E1E49087037
:1037A0000020194908701A4908701A480078FCF777
:1037B000F6FD8046194A1A4BFCF77FFD06460022AB
:1037C000184BFCF7D3FC0446FCF7F6FD11490870D2
:1037D00011480078FCF7E3FD0646104A104BFCF751
:1037E0006CFD044600220F4BFCF7C0FC8046FCF742
:1037F000E3FD09490870BDE8F08700007B00002068
:103800000008014079000020770000207A000020A5
:103810007800002075000020760000208FC2F52877
:103820005C8FE03F0000E03F7FB505460C4601217C
:103830000220FDF79FF80020ADF80A00ADF8060061
:10384000ADF80850ADF8044001A90E48FDF78CFA18
:10385000012211460B48FDF77CFA1D208DF800006F
:1038600001208DF8030000208DF8010003208DF861
:1038700002006846FDF73AF801210248FDF749FACF
:103880007FBD00000004004010B540212D48FCF72A
:10389000A2FF01280ED101022A48FCF79CFF012853
:1038A00008D110212748FCF796FF012802D12649AC
:1038B000087045E040212348FCF78DFF012810D017
:1038C0004FF480711F48FCF786FF012809D11021B1
:1038D0001C48FCF780FF012803D001201A4908701A
:1038E0002EE040211748FCF776FF01280BD040213D
:1038F0001448FCF770FF012809D101021148FCF7B8
:103900006AFF012803D103200F49087018E0102135
:103910000C48FCF760FF01280BD010210948FCF788
:103920005AFF012809D101020648FCF754FF01287B
:1039300003D102200449087002E000200249087007
:1039400010BD0000002001407C00002008B50420CC
:103950008DF803004FF4A870ADF8000003208DF837
:10396000020069460148FCF7ABFE08BD002001409B
:103970003EB505460C4601210420FCF7FBFF002064
:10398000ADF80600ADF80200ADF80450ADF8004007
:1039900069460248FDF7E8F93EBD00000008004016
:1039A0001FB548208DF80F004FF48040ADF80C0093
:1039B00003208DF80E0003A91D48FCF781FE10209E
:1039C0008DF80F000001ADF80C0003208DF80E00FB
:1039D00003A91848FCF774FE0E210120FCF750FEE5
:1039E0004FF48040019000208DF80A008DF8080007
:1039F0000C208DF8090001A8FCF7F8FD28208DF8AF
:103A0000000001208DF803008DF8010000208DF8E2
:103A100002006846FCF76AFF4FF480710548FCF726
:103A2000E3FE47214FF6FF70FFF7A2FF1FBD000026
:103A3000000C01400014014010B586B0044601217D
:103A40008803FCF7A7FF18208DF817004FF40070CB
:103A5000ADF8140003208DF8160005A91D48FCF7E9
:103A60002FFE04208DF817000002ADF8140001208D
:103A70008DF8160005A91748FCF722FE01940020D6
:103A8000ADF810000C20ADF80E000020ADF80C00D1
:103A9000ADF80A00ADF8080001A90F48FDF738FAA3
:103AA00001210D48FDF7D8F925208DF800000120EF
:103AB0008DF803008DF8010000208DF802006846A3
:103AC000FCF714FF012240F225510348FDF7FAF9F3
:103AD00006B010BD000801400038014057656C6316
:103AE0006F6D6520746F2075736521004469737470
:103AF000616E63653A20004D4F44453A00464C3AAA
:103B000020202020636D2F73202020200046523A71
:103B100020202020636D2F7320202020005472610C
:103B2000636B696E67207374617465006F6E2074D7
:103B3000686520726F616400726F6164206C6566F5
:103B40007400726F6164207269676874006F7574C5
:103B5000206F6620726F6164000000007C3B0008EB
:103B6000000000209C00000048100008183C0008DD
:103B70009C000020140400005810000848030000B6
:103B800000000000000000000F0000000000000026
:103B90000000000000000000000000000000000025
:103BA0000000000000000000000000000000000015
:103BB00000A24A040000000000000000010203040B
:103BC00006070809000000000102030401020304C3
:103BD00006070809020406080000000000000000B3
:103BE00000000000000000000F00000000000000C6
:103BF00000000000000000000000000000000000C5
:103C000000000000010000000000000000000000B3
:083C10000000000000000000AC
:0400000508000131BD
:00000001FF
